:1000000055C000005BC0000059C0000057C0000090
:1000100055C0000053C0000051C000004FC0000098
:100020004DC000004BC0000049C0000047C00000A8
:1000300045C0000043C0000041C000003FC00000B8
:100040003DC000003BC0000039C0000037C00000C8
:1000500035C0000033C0000031C000002FC00000D8
:100060002DC000002BC0000029C0000027C00000E8
:1000700025C0000023C0000021C000001FC00000F8
:100080001DC000001BC0000019C0000017C0000008
:1000900015C0000013C0000011C000000FC0000018
:1000A0000DC000000BC0000009C0000011241FBEDD
:1000B000CFEFDAE0DEBFCDBF02D001C1A1CFE4D0E7
:1000C00021D0ABD097D065E48FEF91E0C8D092D02B
:1000D00091D08FEF91E0B2D0C0E0D0E004C06AEAE6
:1000E000CE01BDD02196C11580E2D807C0F3C0E093
:1000F000D0E003C0CE01A2D02196C11580E2D8077E
:10010000C8F3FFCFCF93DF9300D000D01F92CDB7BD
:10011000DEB71A821B821C821D82C9D08FE9C1D032
:1001200089838FE9BED08983898190E0A0E0B0E027
:10013000B82FAA27992788274A815B816C817D8106
:10014000842B952BA62BB72B8A839B83AC83BD83F3
:100150008FE9A7D08983898190E0A0E0B0E0DC013D
:10016000992788274A815B816C817D81842B952B1F
:10017000A62BB72B8A839B83AC83BD838FE991D059
:100180008983898190E0982F88274A815B816C81DF
:100190007D81092E000CAA0BBB0B842B952BA62B63
:1001A000B72B8A839B83AC83BD838FE97AD0898305
:1001B00029818A819B81AC81BD81822B8A839B832B
:1001C000AC83BD838FE96DD0898375D08A819B8193
:1001D000AC81BD8182309340AF47B44011F480E0E0
:1001E00001C081E00F900F900F900F900F90DF9162
:1001F000CF910895CF93DF931F92CDB7DEB71982C9
:1002000056D085E04ED0898380E04BD0898353D08F
:1002100089810F90DF91CF910895CF93DF931F9243
:10022000CDB7DEB7198243D086E03BD0898343D077
:100230003ED089810F90DF91CF910895CF93DF93C6
:10024000C82FD92F34D083E02CD08D2F2AD08C2FDB
:1002500028D080E026D02FD0DF91CF9108951F9332
:10026000CF93DF93D82F192FC62F21D0D6DF82E06E
:1002700018D0812F16D08D2F14D08C2F12D01BD0D8
:10028000DF91CF911F91089584B1866284B984B1C2
:10029000877F84B98CB581658CBD85B1806285B955
:1002A00008958EBD0DB407FEFDCF8EB5089585B1BE
:1002B0008F7D85B9089585B1806285B90895F894D8
:0202C000FFCF6E
:00000001FF
