S00F00004652414D6C69622E73726563B8
S113000055C0000066C0000064C0000062C000006B
S113001060C000005EC000005CC000005AC0000068
S113002058C0000056C0000054C0000052C0000078
S113003050C000004EC000004CC000004AC0000088
S113004048C0000046C0000044C0000042C0000098
S113005040C000003EC000003CC000003AC00000A8
S113006038C0000036C0000034C0000032C00000B8
S113007030C000002EC000002CC000002AC00000C8
S113008028C0000026C0000024C0000022C00000D8
S113009020C000001EC000001CC000001AC00000E8
S11300A018C0000016C0000014C0000011241FBEB8
S11300B0CFEFDAE0DEBFCDBF11E0A0E0B1E0E8E6CB
S11300C0F3E002C005900D92A630B107D9F702D033
S11300D049C196CFCF93DF9300D000D01F92CDB704
S11300E0DEB725D119D090D065E581E090E0CCD081
S11300F081E090E0AFD085E0E0E0F1E0DE01119630
S113010001900D928A95E1F745E0BE016F5F7F4F44
S113011080E090E0D8D0FFCFCF93DF9300D000D021
S11301201F92CDB7DEB71A821B821C821D8212D1A8
S11301308FE90AD189838FE907D18983898190E086
S1130140A0E0B0E0B82FAA27992788274A815B81CD
S11301506C817D81842B952BA62BB72B8A839B8363
S1130160AC83BD838FE9F0D08983898190E0A0E0DE
S1130170B0E0DC01992788274A815B816C817D810D
S1130180842B952BA62BB72B8A839B83AC83BD83AF
S11301908FE9DAD08983898190E0982F88274A8172
S11301A05B816C817D81092E000CAA0BBB0B842B17
S11301B0952BA62BB72B8A839B83AC83BD838FE9B6
S11301C0C3D0898329818A819B81AC81BD81822BA3
S11301D08A839B83AC83BD838FE9B6D08983BED0E9
S11301E08A819B81AC81BD8182309340AF47B4400A
S11301F011F480E001C081E00F900F900F900F90F8
S11302000F90DF91CF910895CF93DF931F92CDB7D5
S1130210DEB719829FD085E097D0898385E094D09A
S113022089839CD089810F90DF91CF910895CF93DA
S1130230DF931F92CDB7DEB719828CD086E084D0CD
S1130240898385E081D0898389D089810F90DF916A
S1130250CF910895CF93DF938F3F2FE1920780F4DE
S1130260EC0178D083E070D080E06ED08C2F6CD01D
S11302708FEF6AD08FEF68D0C82F70D08C2F01C059
S113028081E0DF91CF9108951F93CF93DF938F3F48
S11302902FE1920788F4162FEC015CD0C8DF81FFB0
S11302A00DC082E051D080E04FD08C2F4DD0812FF3
S11302B04BD054D080E003C081E001C081E0DF91E5
S11302C0CF911F910895EF92FF920F931F93CF93B5
S11302D0DF938F3F2FE1920700F5D42F8B017C0130
S11302E039D0A5DF81FF1BC082E02ED080E02CD066
S11302F08E2D2AD0C0E006C0F801EC0FF11D8081DC
S113030023D0CF5F2C2F30E08D2F90E0019728175A
S1130310390794F323D080E003C081E001C081E079
S1130320DF91CF911F910F91FF90EF90089584B1C9
S1130330866284B984B1877F84B98CB581658CBDAC
S113034085B1806285B908958EBD0DB407FEFDCFD9
S11303508EB5089585B18F7D85B9089585B1806284
S10B036085B90895F894FFCF5C
S10903681122334455008C
S9030000FC
