:1000000055C000005BC0000059C0000057C0000090
:1000100055C0000053C0000051C000004FC0000098
:100020004DC000004BC0000049C0000047C00000A8
:1000300045C0000043C0000041C000003FC00000B8
:100040003DC000003BC0000039C0000037C00000C8
:1000500035C0000033C0000031C000002FC00000D8
:100060002DC000002BC0000029C0000027C00000E8
:1000700025C0000023C0000021C000001FC00000F8
:100080001DC000001BC0000019C0000017C0000008
:1000900015C0000013C0000011C000000FC0000018
:1000A0000DC000000BC0000009C0000011241FBEDD
:1000B000CFEFDAE0DEBFCDBF02D0D8C0A1CFBBD03A
:1000C00009D080D065E581E090E0A1D081E090E0AA
:1000D0008CD0FFCFCF93DF9300D000D01F92CDB74D
:1000E000DEB71A821B821C821D82B8D08FE9B0D085
:1000F00089838FE9ADD08983898190E0A0E0B0E069
:10010000B82FAA27992788274A815B816C817D8136
:10011000842B952BA62BB72B8A839B83AC83BD8323
:100120008FE996D08983898190E0A0E0B0E0DC017E
:10013000992788274A815B816C817D81842B952B4F
:10014000A62BB72B8A839B83AC83BD838FE980D09A
:100150008983898190E0982F88274A815B816C810F
:100160007D81092E000CAA0BBB0B842B952BA62B93
:10017000B72B8A839B83AC83BD838FE969D0898346
:1001800029818A819B81AC81BD81822B8A839B835B
:10019000AC83BD838FE95CD0898364D08A819B81E5
:1001A000AC81BD8182309340AF47B44011F480E010
:1001B00001C081E00F900F900F900F900F90DF9192
:1001C000CF910895CF93DF931F92CDB7DEB71982F9
:1001D00045D085E03DD0898385E03AD0898342D0FF
:1001E00089810F90DF91CF910895CF93C82F36D09A
:1001F00083E02ED080E02CD08C2F2AD08FEF28D017
:100200008FEF26D0C82F2ED08C2FCF910895CF936B
:10021000DF93D82FC62F22D086E01AD082E018D0E4
:1002200080E016D08D2F14D08C2F12D01BD080E000
:10023000DF91CF91089584B1866284B984B1877FBC
:1002400084B98CB581658CBD85B1806285B908950E
:100250008EBD0DB407FEFDCF8EB5089585B18F7D9F
:1002600085B9089585B1806285B90895F894FFCF66
:00000001FF
