:1000000055C0000066C0000064C0000062C000006F
:1000100060C000005EC000005CC000005AC000006C
:1000200058C0000056C0000054C0000052C000007C
:1000300050C000004EC000004CC000004AC000008C
:1000400048C0000046C0000044C0000042C000009C
:1000500040C000003EC000003CC000003AC00000AC
:1000600038C0000036C0000034C0000032C00000BC
:1000700030C000002EC000002CC000002AC00000CC
:1000800028C0000026C0000024C0000022C00000DC
:1000900020C000001EC000001CC000001AC00000EC
:1000A00018C0000016C0000014C0000011241FBEBC
:1000B000CFEFDAE0DEBFCDBF11E0A0E0B1E0E4E3D6
:1000C000F3E002C005900D92A630B107D9F702D037
:1000D0002FC196CFCF93DF9300D000D01F92CDB722
:1000E000DEB70BD119D090D065E581E090E0C4D0A7
:1000F00081E090E0AFD085E0E0E0F1E0DE01119634
:1001000001900D928A95E1F745E0BE016F5F7F4F48
:1001100080E090E0C8D0FFCFCF93DF9300D000D035
:100120001F92CDB7DEB71A821B821C821D82F8D0C7
:100130008FE9F0D089838FE9EDD08983898190E0C0
:10014000A0E0B0E0B82FAA27992788274A815B81D1
:100150006C817D81842B952BA62BB72B8A839B8367
:10016000AC83BD838FE9D6D08983898190E0A0E0FC
:10017000B0E0DC01992788274A815B816C817D8111
:10018000842B952BA62BB72B8A839B83AC83BD83B3
:100190008FE9C0D08983898190E0982F88274A8190
:1001A0005B816C817D81092E000CAA0BBB0B842B1B
:1001B000952BA62BB72B8A839B83AC83BD838FE9BA
:1001C000A9D0898329818A819B81AC81BD81822BC1
:1001D0008A839B83AC83BD838FE99CD08983A4D021
:1001E0008A819B81AC81BD8182309340AF47B4400E
:1001F00011F480E001C081E00F900F900F900F90FC
:100200000F90DF91CF910895CF93DF931F92CDB7D9
:10021000DEB7198285D085E07DD0898385E07AD0EC
:10022000898382D089810F90DF91CF910895CF93F8
:10023000DF931F92CDB7DEB7198272D086E06AD005
:10024000898385E067D089836FD089810F90DF91A2
:10025000CF910895CF93C82F63D083E05BD080E027
:1002600059D08C2F57D08FEF55D08FEF53D0C82F48
:100270005BD08C2FCF910895CF93DF93D82FC62FCB
:100280004FD0D5DF81FF0BC082E044D080E042D068
:100290008D2F40D08C2F3ED047D080E001C081E030
:1002A000DF91CF9108950F931F93CF93DF93C82FC2
:1002B0008B01D42F35D0BBDF81FF19C082E02AD05B
:1002C00080E028D08C2F26D0C0E006C0F801EC0FCB
:1002D000F11D80811FD0CF5F2C2F30E08D2F90E05B
:1002E00001972817390794F31FD080E001C081E0FF
:1002F000DF91CF911F910F91089584B1866284B9E7
:1003000084B1877F84B98CB581658CBD85B18062ED
:1003100085B908958EBD0DB407FEFDCF8EB5089545
:1003200085B18F7D85B9089585B1806285B90895BD
:04033000F894FFCF6F
:06033400112233445500C4
:00000001FF
