:1000000071C0000079C0000077C0000075C000001A
:1000100073C0000071C000006FC000006DC0000020
:100020006BC0000069C0000067C0000065C0000030
:1000300063C0000061C000005FC000005DC0000040
:100040005BC0000059C0000057C0000055C0000050
:1000500053C0000051C000004FC000004DC0000060
:100060004BC0000049C0000047C0000045C0000070
:1000700043C0000041C000003FC000003DC0000080
:100080003BC0000039C0000037C0000035C0000090
:1000900033C0000031C000002FC000002DC00000A0
:1000A0002BC0000029C0000027C0000025C00000B0
:1000B00023C0000021C000001FC000001DC00000C0
:1000C0001BC0000019C0000017C0000015C00000D0
:1000D00013C0000011C000000FC000000DC00000E0
:1000E0000BC0000011241FBECFEFD1E2DEBFCDBF99
:1000F00000E00CBF2CD056C083CFCF93DF93EC0130
:1001000020E030E01EC0C90163E070E024D0FC01B3
:10011000892B21F485B1826085B911C0C90165E0E0
:1001200070E019D0009721F485B1826085B907C0CD
:10013000EF2B29F4892B19F085B1826085B92F5FE7
:100140003F4F2C173D07F8F2DF91CF91089588EECD
:100150009DEFD3DFFFCF97FB072E16F4009406D058
:1001600077FD08D00BD007FC05D03EF49095819523
:100170009F4F0895709561957F4F0895AA1BBB1BF3
:1001800051E107C0AA1FBB1FA617B70710F0A61B97
:10019000B70B881F991F5A95A9F780959095BC01B8
:0801A000CD010895F894FFCF92
:00000001FF
