S0120000536572436F6E736F6C652E7372656315
S11300000C9456000C9473000C9473000C947300BD
S11300100C9473000C9473000C9473000C94730090
S11300200C9473000C9473000C9473000C94730080
S11300300C9473000C9473000C9473000C94730070
S11300400C9473000C9473000C9473000C94730060
S11300500C9473000C9473000C9473000C94730050
S11300600C9473000C94FB000C9473000C947300B8
S11300700C9473000C9473000C9473000C94730030
S11300800C9473000C9473000C9473000C94730020
S11300900C9473000C9473000C9473000C94730010
S11300A00C9473000C9473000C94730011241FBE01
S11300B0CFEFDAE0DEBFCDBF11E0A0E0B1E0EAE8C7
S11300C0F6E002C005900D92AA34B107D9F721E0F9
S11300D0AAE4B1E001C01D92AE37B207E1F70E9475
S11300E0AD020C9443030C940000CF93DF93CDB77F
S11300F0DEB7F89481E0DF91CF910895CF93DF9339
S113010000D0CDB7DEB79A838983789400000F902E
S11301100F90DF91CF910895CF93DF93CDB7DEB7E2
S113012089EC90E029EC30E0F90120812861FC01A0
S113013020838AEC90E026E0FC01208389EC90E0A7
S113014029EC30E0F90120812068FC0120838DEC4A
S113015090E0FC0110828CEC90E027E6FC01208307
S113016078940000DF91CF910895CF93DF931F928D
S1130170CDB7DEB78983000088EC90E0FC01808174
S1130180882F90E080729927892BB1F38EEC90E050
S11301902981FC01208300000F90DF91CF91089505
S11301A0CF93DF9300D0CDB7DEB79A8389830BC09A
S11301B089819A819C012F5F3F4F3A832983FC01F7
S11301C080810E94B50089819A81FC018081882305
S11301D079F700000F900F90DF91CF910895CF939E
S11301E0DF93CDB7DEB780E091E00E94D00000003D
S11301F0DF91CF9108951F920F9200905F000F92AC
S113020011242F933F934F935F936F937F938F9317
S11302109F93AF93BF93EF93FF93CF93DF93CDB7A8
S1130220DEB780914C01882F90E02EEC30E0F9018C
S11302302081835A9E4FFC0120838EEC90E0FC01C8
S113024080810E94B50080914C01882F90E0835AF0
S11302509E4FFC0180818A3051F080914C01882F9F
S113026090E0835A9E4FFC0180818D3031F481E00F
S113027080937D0110924C0105C080914C018F5FE9
S113028080934C010000DF91CF91FF91EF91BF91DA
S1130290AF919F918F917F916F915F914F913F911A
S11302A02F910F9000925F000F901F901895CF939D
S11302B0DF9300D0CDB7DEB71A820E947500898320
S11302C012C080E1EDE5F1E0ADE4B1E001900D9202
S11302D08A95E1F740E150E060E070E08DE591E05F
S11302E00E94E20219828981882359F7CE0102967D
S11302F00E947E0000000F900F90DF91CF9108952F
S1130300CF93DF93CDB7DEB764970FB6F894DEBF13
S11303100FBECDBF20E1CE010596FC01322F119214
S11303203A95E9F71A8219826DE370E08DE491E061
S11303300E94E9029C838B838B819C819C012F5FAB
S11303403F4FCE010596B9010E94F402CE010596F5
S11303500E94C4029A8389836DE471E08DE691E082
S11303600E94F40289819A8164960FB6F894DEBFE4
S11303700FBECDBFDF91CF910895CF93DF93CDB75B
S1130380DEB764970FB6F894DEBF0FBECDBF20E191
S1130390CE010596FC01322F11923A95E9F71A82A3
S11303A019826DE370E08DE691E00E94E9029C837E
S11303B08B838B819C819C012F5F3F4FCE010596DF
S11303C0B9010E94F402CE0105960E94C4029A83E8
S11303D0898389819A8164960FB6F894DEBF0FBE33
S11303E0CDBFDF91CF910895CF93DF93CDB7DEB723
S11303F063970FB6F894DEBF0FBECDBF898B7B8B9E
S11304006A8B85E091E00E94D0008A899B894AE04A
S113041050E09E012F5F3F4FB9010E94FB02898982
S11304200E94B5008AE30E94B500CE0101960E94A5
S1130430D00085E091E00E94D000000063960FB6E2
S1130440F894DEBF0FBECDBFDF91CF910895CF9357
S1130450DF93CDB7DEB780914D01882F90E08234D1
S1130460910521F083349105C1F16EC080914E0154
S11304708D3389F40E94800190934B0180934A014B
S113048080914A0190914B0120914D01BC01822F32
S11304900E94F4015EC080914E018F33C9F485E05F
S11304A091E00E94D00088E091E00E94D0000E9478
S11304B0BD0190934B0180934A0180914A01909130
S11304C04B0120916D01BC01822F0E94F40141C0B7
S11304D08CE191E00E94D0003CC080914E018D33AC
S11304E089F40E94800190934B0180934A0180918A
S11304F04A0190914B0120914D01BC01822F0E9431
S1130500F40127C080914E018F33C9F485E091E056
S11305100E94D0008EE291E00E94D0000E94BD01B2
S113052090934B0180934A0180914A0190914B0131
S113053020914D01BC01822F0E94F4010AC08CE17C
S113054091E00E94D00005C08CE191E00E94D000AF
S113055000000000DF91CF910895CF93DF93CDB7D2
S1130560DEB70E948C0089E391E00E94D0000E94D3
S1130570EF0080917D018130E1F70E9457010E94D4
S1130580270210927D01F5CFFC0188279927E89472
S113059021912032E9F3293010F02E30C8F32B32A8
S11305A041F02D3239F4689404C00E941103820F83
S11305B0911D219120532A30C0F31EF4909581950A
S11305C09F4F0895DC0101C06D9341505040E0F706
S11305D00895FC018191861721F08823D9F7992782
S11305E008953197CF010895FB01DC0101900D922C
S11305F00020E1F708954532510520F4423010F00F
S11306000C940603FB011082CB010895BB274A30EA
S113061031F4992322F4BDE2909581959F4F0C9477
S11306201A037AE0979F902D879F802D910D1124B6
S11306300895BB27FB015527AA27880F991FAA1FD6
S1130640A41710F0A41B83955051B9F7A05DAA33E9
S113065008F0A95DA193009779F7B111B1931192B4
S1130660CB010C943303DC01FC01672F71917723D8
S1130670E1F7329704C07C916D9370836291AE1759
S10D0680BF07C8F30895F894FFCFF4
S113068A4F4B0D0A000D0A004272696768746E6561
S113069A7373205175657279200A0D00496E76616B
S11306AA6C696420636F6D6D616E640A0D0043208A
S11306BA5175657279200A0D0048656C6C6F2C209F
S10D06CA576F726C64210A0D0000E2
S9030000FC
