:10000000C6C00000E2C00000E0C00000DEC000008A
:10001000DCC000008FC10000D8C00000D6C00000C6
:10002000D4C00000D2C00000D0C00000CEC000008C
:10003000CCC0000000C5000025C50000C6C00000FF
:10004000C4C00000C2C00000C0C00000BEC00000AC
:10005000B1C40000BAC00000B8C00000B6C00000C3
:10006000B4C00000B2C00000B0C00000AEC00000CC
:10007000ACC00000AAC00000A8C00000A6C00000DC
:10008000A4C00000A2C00000A0C000006E616E000D
:10009000696E660000407A10F35A00A0724E18098B
:1000A0000010A5D4E80000E87648170000E40B54DF
:1000B000020000CA9A3B000000E1F50500008096AE
:1000C0009800000040420F000000A08601000000E0
:1000D000102700000000E80300000000640000009A
:1000E00000000A00000000000100000000002C7663
:1000F000D888DC674F0823DFC1DFAE59E1B1B7967E
:10010000E5E3E453C63AE651997696E8E6C28426DA
:10011000EB898C9B62ED407C6FFCEFBC9C9F40F2B6
:10012000BAA56FA5F490055A2AF75C936B6CF96732
:100130006DC11BFCE0E40D47FEF520E6B500D0EDF7
:10014000902E0300943577050080841E080000205F
:100150004E0A000000C80C333333330F986E1283FD
:100160001141EF8D2114893BE65516CFFEE6DB18D1
:10017000D1844B381BF77C1D901DA4BBE424203296
:1001800084725E228100C9F124ECA1E53D2711248F
:100190001FBECFEFD0E4DEBFCDBF11E0A0E0B1E0E5
:1001A000E2EBF9E100E00BBF02C007900D92A83B23
:1001B000B107D9F721E0A8EBB1E001C01D92AC3E38
:1001C000B207E1F79BD30C94D70C1ACFEAE7F0E023
:1001D0008081876880838081806480830895CF9345
:1001E000DF9300D0CDB7DEB7F8941A82198282303F
:1001F00009F168F48823D1F08130E9F580917C0021
:10020000807E80937C0080917C0081602DC0863050
:10021000D1F0873009F1833071F580917C00807EC8
:1002200080937C0080917C0083601EC080917C0064
:10023000807E1AC080917C00807E80937C008091BB
:100240007C00826011C080917C00807E80937C0065
:1002500080917C00866008C080917C00807E8093C5
:100260007C0080917C00876080937C0080917A0084
:10027000806480937A0080917A0086FDFCCF209183
:1002800078003091790089819A81822B932B9A830F
:1002900089831A82198280917A00806480937A001F
:1002A00080917A0086FDFCCF209178003091790012
:1002B00089819A81822B932B9A838983789489816F
:1002C0009A810F900F90DF91CF9108950F931F9314
:1002D000CF93DF9300D0CDB7DEB78C011A8219829D
:1002E00024E0959587952A95E1F78A832981C801AD
:1002F00034E0880F991F3A95E1F7822B898380ECCF
:10030000EED380E413D48A8111D489810FD41F9352
:100310000F9380E191E09F938F930E94F80B0F90D1
:100320000F900F900F900F900F90DF91CF911F9132
:100330000F9108951F920F920FB60F9211240F90F4
:100340000FBE0F901F9018955B9A85E38A95F1F781
:1003500000005B980895CF93C82F662311F0469A4A
:1003600001C046985A98549A559A569A579A5F9847
:100370005E985D985C98C7FD5F9AC6FD5E9AC5FD64
:100380005D9AC4FD5C9AE0DF5F985E985D985C982A
:10039000C3FD5F9AC2FD5E9AC1FD5D9AC0FD5C9A85
:1003A000D3DF5C9A5D9A5E9A5F9ACF9108954698E2
:1003B0005A9A54985598569857985B9A85E38A9517
:1003C000F1F700004C9B02C080E101C080E04D9934
:1003D00080624E9980644F9980685B9895E39A9506
:1003E000F1F700005B9A95E39A95F1F700004C99BC
:1003F00081604D9982604E9984604F9988605B98C6
:100400000895D5DF87FDFDCF85E18A95F1F70000DE
:10041000CECFCF93C82FF5DF60E08C2FCF919BCF4D
:10042000611102C0805809C0613011F4805405C0C8
:10043000623011F48C5601C08C52EBCF81E0E9CFD1
:10044000CF93C82FDEDFCA3099F4843148F090ECA6
:10045000980F943138F084518C3230F080E005C030
:1004600080E403C084E101C084E58058CF91D1CFFE
:1004700061E08C2FCF916FCFCF93DF93EC01899107
:10048000882311F0DDDFFBCFDF91CF910895CF936B
:10049000C82F3E9A529A539A549A559A569A579AF6
:1004A0008FEF99EF0197F1F700C000005D9A5C9A19
:1004B0004BDF8FE19EE40197F1F700C0000044DFBD
:1004C0008FEF90E00197F1F700C000003DDF8FEF64
:1004D00090E00197F1F700C000005C9835DF8FEFE6
:1004E00090E00197F1F700C0000088E292DF88E019
:1004F00090DFA4DF86E08DDF8C2FCF918ACFCF9362
:10050000DF93CDB7DEB72F970FB6F894DEBF0FBEDF
:10051000CDBF4AE0BE016F5F7F4F0E94910BCE01BD
:100520000196AADF2F960FB6F894DEBF0FBECDBF9F
:10053000DF91CF9108950F931F93CF93DF93CDB7A2
:10054000DEB727970FB6F894DEBF0FBECDBF9F93DF
:100550008F937F936F9382E291E09F938F938E01AD
:100560000F5F1F4F1F930F930E943B0CC80184DF46
:100570000FB6F894DEBF0FBECDBF27960FB6F89426
:10058000DEBF0FBECDBFDF91CF911F910F910895B8
:10059000CF93C82F8A3011F48DE0FADF8091C0002C
:1005A00085FFFCCFC093C60080E090E0CF91089516
:1005B0008CE06DDF43DF60E080E032DF60E080E010
:1005C0002FDF88E291E058DF61E080E029DF8DE2F3
:1005D00091E052DF62E080E023DF83E391E04CDFD3
:1005E00062E08AE01DDF87E391E046DF63E080E0C0
:1005F00017DF8BE391E040DF63E08AE011DF8FE3F8
:1006000091E03ACFF89460E085E00ADF83E491E07E
:1006100033DF60E085E004DF8091E2019091E30147
:100620006EDF60E08BE0FCDE83E491E025DF60E0DC
:100630008BE0F6DE8091D8019091D90160DF609166
:10064000D2017091D3018091D4019091D50173DFD3
:1006500061E085E0E5DE83E491E00EDF61E085E0C6
:10066000DFDE8091E4019091E50149DF61E08CE0FB
:10067000D7DE83E491E000DF61E08CE0D1DE6091C1
:10068000CE017091CF018091D0019091D10153DFC3
:1006900062E08EE0C5DE83E491E0EEDE62E08EE0B3
:1006A000BFDE6091C6017091C7018091C801909131
:1006B000C90141DF62E084E0B3DE83E491E0DCDE87
:1006C00062E084E0ADDE6091CA017091CB0180915F
:1006D000CC019091CD012FDF789408952C9A089544
:1006E0002C980895F8941092E3011092E201109270
:1006F000E5011092E4011092E1011092E0011092E4
:10070000DF011092DE011092DD011092DC011092E7
:10071000DB011092DA0181E062DD9093E5018093C4
:10072000E40180E05CDD9093E3018093E20182E0EC
:1007300056DD9093E1018093E00183E050DD9093DA
:10074000DF018093DE016091E2017091E301072EE9
:10075000000C880B990B62D229E730E449ED5CE389
:10076000E9D22FEF38ED4BE85EE3F2D16093D2018E
:100770007093D3018093D4019093D5016091E401EB
:100780007091E501072E000C880B990B47D221E7E9
:1007900037E54FEA5BE3CED22EE835E741E75DE38C
:1007A000D6D16093CE017093CF018093D001909306
:1007B000D1016091E0017091E101072E000C880BDE
:1007C000990B2CD228E53DE845E15EE3B3D22FE456
:1007D0003FE648E552E4BBD16093CA017093CB0178
:1007E0008093CC019093CD016091DE017091DF0187
:1007F000072E000C880B990B11D222EC3AEF4FE137
:100800005EE398D220E030E04FE652E4A0D160935E
:10081000C6017093C7018093C8019093C90180916C
:10082000E0019091E101853F91403CF48091DE012F
:100830009091DF01853F91400CF050DF8091E00105
:100840009091E1018E3F91403CF08091DE019091CA
:10085000DF018E3F91400CF443DF8091D2019091F3
:10086000D301A091D401B091D5012091E201309142
:10087000E301BF93AF939F938F933F932F9388E4AC
:1008800091E09F938F93B4D78091CE019091CF0147
:10089000A091D001B091D1012091E4013091E50106
:1008A000BF93AF939F938F933F932F9389E591E0ED
:1008B0009F938F939DD778948DB79EB740960FB630
:1008C000F8949EBF0FBE8DBF089588E98093C10044
:1008D00086E08093C2001092C50087E68093C40032
:1008E0008EE691E098D778940895249A61DEF1D04D
:1008F00080E090E0EBDC6ADC86D0E7CF80E091E03E
:100900009093E9018093E801F0DFFFCF2091B801D7
:100910003091B9012C30310559F0F901E654FE4F00
:1009200080832F5F3F4F3093B9012093B8010BC0F4
:10093000EAEBF1E0119221E0E63CF207D9F71092E0
:10094000B9011092B8018D30A1F58AEB91E09F9327
:100950008F9385E991E09F938F934AD78AEB91E03B
:10096000D5D580930E0190930F019F938F9389EAC1
:1009700091E09F938F933CD780910E0190910F014E
:100980009093D7018093D601EAEBF1E086EC91E0F9
:100990002DB73EB7285F3F4F0FB6F8943EBF0FBE4E
:1009A0002DBF11928E179F07E1F71092B901109297
:1009B000B80108951F920F920FB60F9211240BB633
:1009C0000F922F933F934F935F936F937F938F93E8
:1009D0009F93AF93BF93EF93FF938091C60096DFF1
:1009E000FF91EF91BF91AF919F918F917F916F9107
:1009F0005F914F913F912F910F900BBE0F900FBEC3
:100A00000F901F901895E1E8F0E080818D60808361
:100A1000EFE6F0E080818660808388E194E6909341
:100A200089008093880080E197E290938B00809307
:100A30008A00789408951F920F920FB60F92112496
:100A40000BB60F922F933F934F935F936F937F93C8
:100A50008F939F93AF93BF93EF93FF93D3DDFF915A
:100A6000EF91BF91AF919F918F917F916F915F9126
:100A70004F913F912F910F900BBE0F900FBE0F9093
:100A80001F9018951F920F920FB60F9211240BB65C
:100A90000F922F933F934F935F936F937F938F9317
:100AA0009F93AF93BF93EF93FF931CDEFF91EF9162
:100AB000BF91AF919F918F917F916F915F914F9176
:100AC0003F912F910F900BBE0F900FBE0F901F9074
:100AD00018951092B90088E48093B800089524EA2C
:100AE00034E844E92093BC009091BC0097FFFCCF10
:100AF0009091B900987F983011F0903199F78093D8
:100B0000BB003093BC009091BC0097FFFCCF90914C
:100B1000B900987F903211F0983539F44093BC00B9
:100B20009091BC0094FDFCCFDDCF08958093BB0075
:100B300084E88093BC008091BC0087FFFCCF90913B
:100B4000B900987F81E0983209F480E00895505808
:100B5000BB27AA270ED0B4C0A5D030F0AAD020F071
:100B600031F49F3F11F41EF49AC00EF4E095E7FBB8
:100B700090C0E92FB6D080F3BA17620773078407D5
:100B8000950718F071F49EF5CEC00EF4E0950B2E8B
:100B9000BA2FA02D0B01B90190010C01CA01A001CF
:100BA0001124FF27591B99F0593F50F4503E68F12A
:100BB0001A16F040A22F232F342F4427585FF3CF6B
:100BC000469537952795A795F0405395C9F77EF43C
:100BD0001F16BA0B620B730B840BBAF09150A1F085
:100BE000FF0FBB1F661F771F881FC2F70EC0BA0F0B
:100BF000621F731F841F48F4879577956795B79593
:100C0000F7959E3F08F0B3CF9395880F08F099278A
:100C1000EE0F979587950895E89409C097FB3EF4E9
:100C200090958095709561957F4F8F4F9F4F992339
:100C3000A9F0F92F96E9BB279395F69587957795B7
:100C40006795B795F111F8CFFAF4BB0F11F460FF77
:100C50001BC06F5F7F4F8F4F9F4F16C0882311F0CF
:100C600096E911C0772321F09EE8872F762F05C0E3
:100C7000662371F096E8862F70E060E02AF09A957E
:100C8000660F771F881FDAF7880F9695879597F973
:100C9000089597F99F6780E870E060E008959FEFFE
:100CA00080EC089500240A94161617061806090603
:100CB000089500240A9412161306140605060895D2
:100CC000092E0394000C11F4882352F0BB0F40F45A
:100CD000BF2B11F460FF04C06F5F7F4F8F4F9F4F9A
:100CE000089557FD9058440F551F59F05F3F71F01C
:100CF0004795880F97FB991F61F09F3F79F0879583
:100D00000895121613061406551FF2CF4695F1DF0B
:100D100008C0161617061806991FF1CF869571059B
:100D2000610508940895E894BB2766277727CB01CF
:100D300097F908950BD0C4CFB5DF28F0BADF18F0CB
:100D4000952309F0A6CFABCF1124EECFCADFA0F3D5
:100D5000959FD1F3950F50E0551F629FF001729F50
:100D6000BB27F00DB11D639FAA27F00DB11DAA1F6F
:100D7000649F6627B00DA11D661F829F2227B00DBC
:100D8000A11D621F739FB00DA11D621F839FA00D47
:100D9000611D221F749F3327A00D611D231F849F97
:100DA000600D211D822F762F6A2F11249F575040EE
:100DB0008AF0E1F088234AF0EE0FFF1FBB1F661F89
:100DC000771F881F91505040A9F79E3F510570F042
:100DD00060CFAACF5F3FECF3983EDCF38695779522
:100DE0006795B795F795E7959F5FC1F7FE2B880F3D
:100DF000911D9695879597F908952F923F924F925E
:100E00005F926F927F928F929F92AF92BF92CF929A
:100E1000DF92EF92FF920F931F93CF93DF93CDB7A3
:100E2000DEB760970FB6F894DEBF0FBECDBF7C0172
:100E30001B016A01FC0117821682838181FF2AC38C
:100E40009E012F5F3F4F3901F7019381F10193FD1F
:100E5000859193FF81911F01882309F417C385327F
:100E600039F493FD859193FF81911F01853231F40F
:100E7000B70190E081D456016501E6CF10E0512C16
:100E8000912CFFE1F915D8F08B3279F038F48032EB
:100E900079F08332A1F4F92DF0612EC08D3261F02A
:100EA000803369F4292D21602DC0392D3260932EB5
:100EB000892D8460982E2AC0E92DE86015C097FC22
:100EC0002DC020ED280F2A3088F496FE06C03AE0A7
:100ED000139F200D1124122F19C08AE0589E200D57
:100EE0001124522EE92DE0629E2E10C08E3231F474
:100EF00096FCCCC2F92DF0649F2E08C08C3621F4EC
:100F0000292D2068922E02C0883641F4F10193FD0C
:100F1000859193FF81911F018111B3CF9BEB980FB6
:100F2000933020F4992D9061805E07C09BE9980F63
:100F3000933008F059C1992D9F7E96FF16E09F735C
:100F4000992E853619F49064992E08C0863621F4BE
:100F5000392F3068932E02C01111115097FE07C02F
:100F60001C3350F444244394410E27E00BC0183046
:100F700038F027E017E005C027E09CE3492E02C0C7
:100F8000212F412C560184E0A80EB11CF60160818E
:100F9000718182819381042DA301D5D26C01F981E5
:100FA000FC87F0FF02C0F3FF06C091FC06C092FE72
:100FB00006C000E205C00DE203C00BE201C000E084
:100FC0008C858C7019F0011143C280C297FE10C04D
:100FD0004C0CFC85F4FF04C08A81813309F44A94E7
:100FE000141474F528E0241578F588E0482E2CC0F8
:100FF00096FC2AC0812F90E08C159D059CF03CEF5B
:10100000C3163FEFD30674F0892D8068982E0AC06E
:10101000E2E0F0E0EC0FFD1FE10FF11D8081803375
:1010200019F411501111F4CF97FE0EC044244394CB
:10103000410E812F90E0C816D9062CF41C1904C06B
:101040004424439401C010E097FE06C01C141D0404
:1010500034F4C601019605C085E090E002C081E04D
:1010600090E001110196112331F0212F30E02F5F24
:101070003F4F820F931F252D30E08217930714F402
:10108000581A01C0512C892D897041F4552031F036
:10109000B70180E290E070D35A94F8CF002321F09A
:1010A000B701802F90E068D393FC08C0552031F041
:1010B000B70180E390E060D35A94F8CF97FE4AC01E
:1010C0004601D7FE02C0812C912CC60188199909CE
:1010D000F301E80FF91FFE87ED8796012419310906
:1010E000388B2F87012F10E01195019511093FEFE3
:1010F0008316930621F4B7018EE290E03DD3C81425
:10110000D9044CF08F8598898815990524F4ED85CC
:10111000FE85818101C080E3F1E08F1A91082D8561
:101120003E852F5F3F4F3E872D878016910624F026
:10113000B70190E021D3DBCFC814D90441F49A81E0
:10114000963320F4953319F43C8534FF81E3B701DD
:1011500090E048C08A81813319F09C859F7E9C87EE
:10116000B70190E009D3111105C094FC16C085E6C3
:1011700090E015C0B7018EE290E0FED21E5F82E0E3
:1011800001E0080FF301E80FF11D8081B70190E045
:10119000F3D2802F0113F4CFE8CF85E490E0B701BC
:1011A000EBD2D7FC06C0C114D10441F4EC85E4FFB6
:1011B00005C0D194C194D1088DE201C08BE2B70182
:1011C00090E0DAD280E32AE0C216D1042CF08F5FDF
:1011D000FAE0CF1AD108F7CFB70190E0CDD2B7012E
:1011E000C601C096C9D249C1833631F0833779F040
:1011F000833509F052C01FC0560132E0A30EB11C66
:10120000F6018081898301E010E0630111C056017D
:10121000F2E0AF0EB11CF601C080D18096FE03C093
:10122000612F70E002C06FEF7FEFC6016FD28C01BB
:10123000F92DFF7713C0560122E0A20EB11CF60172
:10124000C080D18096FE03C0612F70E002C06FEFB6
:101250007FEFC60150D28C01F92DF0689F2EF3FD6F
:1012600018C0852D90E00817190798F4B70180E29F
:1012700090E082D25A94F5CFF60197FC859197FEC3
:1012800081916F01B70190E077D251105A940150CB
:1012900011090115110581F7F0C0843611F0893666
:1012A00059F5560197FE09C024E0A20EB11CF601C3
:1012B00060817181828193810AC0F2E0AF0EB11C1E
:1012C000F60160817181072E000C880B990BF92DB6
:1012D000FF769F2E97FF09C0909580957095619538
:1012E0007F4F8F4F9F4FF0689F2E2AE030E0A30181
:1012F000F0D2C82EC6183EC0092D853721F40F7EC6
:101300002AE030E01DC0097F8F3691F018F488354F
:1013100059F0BCC0803719F0883711F0B7C00061B0
:1013200004FF09C0046007C094FE08C0066006C040
:1013300028E030E005C020E130E002C020E132E0EA
:10134000560107FF09C084E0A80EB11CF6016081B8
:1013500071818281938108C0F2E0AF0EB11CF60169
:101360006081718180E090E0A301B3D2C82EC618DD
:101370000F77902E96FE0BC0092D0E7FC11650F4EC
:1013800094FE0AC092FC08C0092D0E7E05C0DC2C1C
:10139000092D03C0DC2C01C0D12E04FF0DC0FE01BD
:1013A000EC0DF11D8081803311F4097E09C002FF2C
:1013B00006C0D394D39404C0802F867809F0D394C8
:1013C00003FD10C000FF06C01C2DD51478F4150DC8
:1013D0001D190CC0D51450F4B70180E290E0CCD1B7
:1013E000D394F8CFD51410F45D1801C0512C04FF2C
:1013F0000FC0B70180E390E0BFD102FF16C001FD2E
:1014000003C088E790E002C088E590E0B7010CC017
:10141000802F867851F001FF02C08BE201C080E28C
:1014200007FD8DE2B70190E0A7D1C11630F4B701F6
:1014300080E390E0A1D11150F8CFCA94F301EC0DF4
:10144000F11D8081B70190E097D1C110F6CF15C092
:10145000F4E0F51550F584E0581A93FE1EC0011112
:1014600025C02C8523FF27C00CE810E0392D3071F2
:10147000932EF8018491811121C0552009F4FCCCF0
:10148000B70180E290E078D15A94F7CFF7018681D6
:10149000978123C08FEF9FEF20C0B70180E290E0DB
:1014A0006BD15A945110F9CFDACF512CB701802F5C
:1014B00090E062D1D6CF00E910E0D8CF91108052F1
:1014C000B70190E059D10F5F1F4FD3CF23E025150F
:1014D00010F483E0C1CF512CC4CF60960FB6F894BE
:1014E000DEBF0FBECDBFDF91CF911F910F91FF9057
:1014F000EF90DF90CF90BF90AF909F908F907F90B4
:101500006F905F904F903F902F900895FC01882737
:101510009927E89421912032E9F3293010F02E30F8
:10152000C8F32B3239F02D3231F4689403C003D163
:10153000820F911D219120532A30C8F31EF49095FB
:1015400081959F4F0895283008F027E03327DA016E
:10155000990F311D87FD916000966105710539F481
:1015600032602E5F3D9330E32A95E1F708959F3F67
:1015700030F080387105610509F03C5F3C5F3D93B8
:10158000913008F08068911DDF93CF931F930F93E4
:10159000FF92EF92192F987F9695E92F9695969541
:1015A000E90FFF27E251FF4F99273327EE24FF244D
:1015B000A701E70105900894079428F4360FE71E69
:1015C000F81E491F511D660F771F881F991F06942B
:1015D000A1F70590079428F4E70EF81E491F561F3F
:1015E000C11D770F881F991F661F0694A1F70590EC
:1015F000079428F4F80E491F561FC71FD11D880FE6
:10160000991F661F771F0694A1F70590079420F491
:10161000490F561FC71FD81F990F661F771F881FB6
:101620000694A9F784911095177041F0D695C79547
:1016300057954795F794E7941A95C1F7E4E9F0E0D8
:1016400068941590159135916591959105907FE27B
:101650007395E118F10A430B560BC90BD009C0F77B
:10166000E10CF11E431F561FC91FD01D7EF47033BD
:1016700011F48A95E6CFE894015030F0080F0AF48F
:101680000027021708F4202F2395022F7A3328F021
:1016900079E37D932A95E9F710C07D932A9589F621
:1016A000069497956795379517951794E118F10A61
:1016B000430B560BC90BD00998F023957E91739577
:1016C0007A3308F070E37C932013B8F77E91706151
:1016D0007D9330F0839571E37D9370E32A95E1F774
:1016E0001124EF90FF900F911F91CF91DF919927D7
:1016F00087FD90950895FC010590615070400110A0
:10170000D8F7809590958E0F9F1F0895FC0161502A
:10171000704001900110D8F7809590958E0F9F1F13
:101720000895BB274A3031F4992322F4BDE2909505
:1017300081959F4F09C07AE0979F902D879F802DBC
:10174000910D11240895BB27FB015527AA27880F67
:10175000991FAA1FA41710F0A41B83955051B9F725
:10176000A05DAA3308F0A95DA193009779F7B111A4
:10177000B1931192CB010BC10F931F93CF93DF93C2
:10178000FB01238121FD03C08FEF9FEF2CC022FFBF
:1017900016C046815781248135814217530744F48E
:1017A000A081B1819D012F5F3F4F318320838C93B6
:1017B000268137812F5F3F4F3783268314C08B01EB
:1017C000EC01FB010084F185E02D0995892BE1F600
:1017D000D80116968D919C911797019617969C9318
:1017E0008E931697CE01DF91CF911F910F9108959F
:1017F000CF93DF93CDB7DEB7AE014B5F5F4FFA01FA
:1018000061917191AF018091E8019091E901F5DA60
:10181000DF91CF9108950F931F93CF93DF93E091C2
:10182000E801F091E901238121FF1BC08C01D0E088
:10183000C0E0F80181918F016091E8017091E901A8
:10184000DB011896ED91FC911997882331F00995E9
:10185000892B79F3DFEFCFEFECCF8AE00995892B65
:1018600019F08FEF9FEF02C08D2F9C2FDF91CF914A
:101870001F910F9108950F931F93CF93DF93CDB7CF
:10188000DEB72E970FB6F894DEBF0FBECDBF0D8921
:101890001E8986E08C831A8309838FEF9FE79E83DE
:1018A0008D83AE01475E5F4F6F89788DCE010196C3
:1018B000A4DAEF81F885E00FF11F10822E960FB6A3
:1018C000F894DEBF0FBECDBFDF91CF911F910F9176
:1018D0000895FA01AA27283051F1203181F1E894C6
:1018E0006F936E7F6E5F7F4F8F4F9F4FAF4FB1E013
:1018F0003ED0B4E03CD0670F781F891F9A1FA11D0E
:10190000680F791F8A1F911DA11D6A0F711D811D0E
:10191000911DA11D20D009F468943F912AE0269FD3
:1019200011243019305D3193DEF6CF010895462F32
:101930004770405D4193B3E00FD0C9F7F6CF462F13
:101940004F70405D4A3318F0495D31FD405241937C
:1019500002D0A9F7EACFB4E0A69597958795779539
:101960006795BA95C9F700976105710508959B01C0
:10197000AC010A2E06945795479537952795BA9549
:10198000C9F7620F731F841F951FA01D0895DC0106
:10199000FC01672F71917723E1F7329704C07C91A6
:1019A0006D9370836291AE17BF07C8F30895F894E2
:0219B000FFCF67
:1019B2000000000300000000C802000000004C0408
:1019C2004461632052656164696E67203A20256430
:1019D2000A0025322E3266005053553A00416D708E
:1019E200733A0054413A0054423A0047413A0047A0
:1019F200423A002020202000505355203A202564EE
:101A02002025322E336620090043757272656E748A
:101A1200203A2025642025322E3366200A0057659D
:101A2200206861766520436F6D6D732120456C657A
:101A32006374726F6E6963204C6F61642050726FC1
:101A42006A656374004461746120526563656976F6
:101A52006564203A2025730A00436F6D6D616E64E0
:081A6200203A2025640A00006F
:00000001FF
