:1000000071C0000081C000007FC000007DC0000002
:100010007BC0000079C0000077C0000075C0000000
:1000200073C0000071C000006FC000006DC0000010
:100030006BC0000069C0000067C0000065C0000020
:1000400063C0000061C000005FC000005DC0000030
:100050005BC0000059C0000057C0000055C0000040
:1000600053C0000051C000004FC000004DC0000050
:100070004BC0000049C0000047C0000045C0000060
:1000800043C0000041C000003FC000003DC0000070
:100090003BC0000039C0000037C0000035C0000080
:1000A00033C0000031C000002FC000002DC0000090
:1000B0002BC0000029C0000027C0000025C00000A0
:1000C00023C0000021C000001FC000001DC00000B0
:1000D0001BC0000019C0000017C0000015C00000C0
:1000E00013C0000011241FBECFEFD1E2DEBFCDBF91
:1000F00000E00CBF22E0A0E0B2E001C01D92A230FF
:10010000B207E1F743D09BC07BCFCF93DF931F9221
:100110001F92CDB7DEB7A0E0B0E0880F991FAA1FED
:10012000BB1F880F991FAA1FBB1F9C01AD01220F87
:10013000331F441F551F220F331F441F551F60E0FC
:1001400074E284EF90E047D0215031093A8329834B
:1001500089819A819093C50089819A818093C40096
:10016000E1ECF0E0808188618083E2ECF0E0808166
:10017000866080830F900F90DF91CF9108959091CA
:10018000C00095FFFCCF8093C6000895CF93DF9306
:100190001F92CDB7DEB784B1826084B980E895E262
:1001A000B4DF8AE4ECDF19820EC09E012F5F3F4F5F
:1001B000309301022093000260E3680F90E02DD09D
:1001C00089818F5F898389818F3F79F795B182E03B
:1001D000892785B9FBCFA1E21A2EAA1BBB1BFD0103
:1001E0000DC0AA1FBB1FEE1FFF1FA217B307E40716
:1001F000F50720F0A21BB30BE40BF50B661F771F6E
:10020000881F991F1A9469F760957095809590954D
:100210009B01AC01BD01CF010895262FF999FECFB6
:1002200092BD81BDF89A019700B4021639F01FBA49
:1002300020BD0FB6F894FA9AF99A0FBE0895F89473
:02024000FFCFEE
:00000001FF
